{
  "contractName": "dapps",
  "abi": [
    {
      "inputs": [
        {
          "internalType": "contract Token",
          "name": "_token",
          "type": "address"
        }
      ],
      "stateMutability": "nonpayable",
      "type": "constructor"
    },
    {
      "stateMutability": "payable",
      "type": "fallback",
      "payable": true
    },
    {
      "inputs": [
        {
          "internalType": "uint256",
          "name": "",
          "type": "uint256"
        }
      ],
      "name": "member",
      "outputs": [
        {
          "internalType": "string",
          "name": "Name",
          "type": "string"
        },
        {
          "internalType": "string",
          "name": "Gender",
          "type": "string"
        },
        {
          "internalType": "address",
          "name": "Address",
          "type": "address"
        }
      ],
      "stateMutability": "view",
      "type": "function",
      "constant": true
    },
    {
      "inputs": [
        {
          "internalType": "uint256",
          "name": "",
          "type": "uint256"
        }
      ],
      "name": "track",
      "outputs": [
        {
          "internalType": "address",
          "name": "Source",
          "type": "address"
        },
        {
          "internalType": "address",
          "name": "To",
          "type": "address"
        },
        {
          "internalType": "string",
          "name": "Amount",
          "type": "string"
        }
      ],
      "stateMutability": "view",
      "type": "function",
      "constant": true
    },
    {
      "stateMutability": "payable",
      "type": "receive",
      "payable": true
    },
    {
      "inputs": [
        {
          "internalType": "address",
          "name": "to",
          "type": "address"
        },
        {
          "internalType": "uint256",
          "name": "amount",
          "type": "uint256"
        }
      ],
      "name": "issuance",
      "outputs": [],
      "stateMutability": "nonpayable",
      "type": "function"
    },
    {
      "inputs": [
        {
          "internalType": "uint256",
          "name": "amount",
          "type": "uint256"
        }
      ],
      "name": "redemption",
      "outputs": [],
      "stateMutability": "nonpayable",
      "type": "function"
    },
    {
      "inputs": [
        {
          "internalType": "address",
          "name": "to",
          "type": "address"
        },
        {
          "internalType": "uint256",
          "name": "amount",
          "type": "uint256"
        }
      ],
      "name": "transfer",
      "outputs": [],
      "stateMutability": "nonpayable",
      "type": "function"
    },
    {
      "inputs": [
        {
          "internalType": "string",
          "name": "_name",
          "type": "string"
        },
        {
          "internalType": "string",
          "name": "_gender",
          "type": "string"
        },
        {
          "internalType": "address",
          "name": "_address",
          "type": "address"
        }
      ],
      "name": "AddMember",
      "outputs": [],
      "stateMutability": "nonpayable",
      "type": "function"
    },
    {
      "inputs": [],
      "name": "MemberLength",
      "outputs": [
        {
          "internalType": "uint256",
          "name": "",
          "type": "uint256"
        }
      ],
      "stateMutability": "view",
      "type": "function",
      "constant": true
    },
    {
      "inputs": [],
      "name": "ShowMembers",
      "outputs": [
        {
          "components": [
            {
              "internalType": "string",
              "name": "Name",
              "type": "string"
            },
            {
              "internalType": "string",
              "name": "Gender",
              "type": "string"
            },
            {
              "internalType": "address",
              "name": "Address",
              "type": "address"
            }
          ],
          "internalType": "struct dapps.Member[]",
          "name": "",
          "type": "tuple[]"
        }
      ],
      "stateMutability": "view",
      "type": "function",
      "constant": true
    },
    {
      "inputs": [
        {
          "internalType": "address",
          "name": "_source",
          "type": "address"
        },
        {
          "internalType": "address",
          "name": "_to",
          "type": "address"
        },
        {
          "internalType": "string",
          "name": "_amount2",
          "type": "string"
        }
      ],
      "name": "AddTrack",
      "outputs": [],
      "stateMutability": "nonpayable",
      "type": "function"
    },
    {
      "inputs": [],
      "name": "TrackLength",
      "outputs": [
        {
          "internalType": "uint256",
          "name": "",
          "type": "uint256"
        }
      ],
      "stateMutability": "view",
      "type": "function",
      "constant": true
    },
    {
      "inputs": [],
      "name": "Tracking",
      "outputs": [
        {
          "components": [
            {
              "internalType": "address",
              "name": "Source",
              "type": "address"
            },
            {
              "internalType": "address",
              "name": "To",
              "type": "address"
            },
            {
              "internalType": "string",
              "name": "Amount",
              "type": "string"
            }
          ],
          "internalType": "struct dapps.Track[]",
          "name": "",
          "type": "tuple[]"
        }
      ],
      "stateMutability": "view",
      "type": "function",
      "constant": true
    },
    {
      "inputs": [
        {
          "internalType": "address",
          "name": "newCB",
          "type": "address"
        }
      ],
      "name": "passCentralBankRole",
      "outputs": [],
      "stateMutability": "nonpayable",
      "type": "function"
    },
    {
      "inputs": [],
      "name": "ShowCentralBankRole",
      "outputs": [
        {
          "internalType": "address",
          "name": "",
          "type": "address"
        }
      ],
      "stateMutability": "view",
      "type": "function",
      "constant": true
    }
  ],
  "bytecode": "0x60806040523480156200001157600080fd5b5060405162001f6438038062001f6483398181016040528101906200003791906200013d565b806000806101000a81548173ffffffffffffffffffffffffffffffffffffffff021916908373ffffffffffffffffffffffffffffffffffffffff16021790555033600160006101000a81548173ffffffffffffffffffffffffffffffffffffffff021916908373ffffffffffffffffffffffffffffffffffffffff160217905550506200016f565b600080fd5b600073ffffffffffffffffffffffffffffffffffffffff82169050919050565b6000620000f182620000c4565b9050919050565b60006200010582620000e4565b9050919050565b6200011781620000f8565b81146200012357600080fd5b50565b60008151905062000137816200010c565b92915050565b600060208284031215620001565762000155620000bf565b5b6000620001668482850162000126565b91505092915050565b611de5806200017f6000396000f3fe6080604052600436106100c65760003560e01c8063a9059cbb1161007f578063cd1edcb411610059578063cd1edcb41461025e578063dab5813814610289578063f6f5218e146102b2578063f73f9e15146102db576100cd565b8063a9059cbb146101df578063b95be4ec14610208578063c5adce1614610233576100cd565b806321ff1b28146100cf578063260188b6146100f85780634a1dc092146101235780635b525fa31461014c578063956d113b14610177578063a110acc6146101b6576100cd565b366100cd57005b005b3480156100db57600080fd5b506100f660048036038101906100f191906114c2565b61031a565b005b34801561010457600080fd5b5061010d61048e565b60405161011a919061155c565b60405180910390f35b34801561012f57600080fd5b5061014a600480360381019061014591906115ad565b6104b8565b005b34801561015857600080fd5b50610161610792565b60405161016e91906115e9565b60405180910390f35b34801561018357600080fd5b5061019e600480360381019061019991906115ad565b61079f565b6040516101ad9392919061168c565b60405180910390f35b3480156101c257600080fd5b506101dd60048036038101906101d891906116d1565b610909565b005b3480156101eb57600080fd5b50610206600480360381019061020191906116fe565b6109dd565b005b34801561021457600080fd5b5061021d610b9d565b60405161022a91906118a9565b60405180910390f35b34801561023f57600080fd5b50610248610d3a565b60405161025591906115e9565b60405180910390f35b34801561026a57600080fd5b50610273610d47565b60405161028091906119e4565b60405180910390f35b34801561029557600080fd5b506102b060048036038101906102ab9190611a06565b610f20565b005b3480156102be57600080fd5b506102d960048036038101906102d491906116fe565b611044565b005b3480156102e757600080fd5b5061030260048036038101906102fd91906115ad565b611165565b60405161031193929190611a75565b60405180910390f35b600160009054906101000a900473ffffffffffffffffffffffffffffffffffffffff1673ffffffffffffffffffffffffffffffffffffffff163373ffffffffffffffffffffffffffffffffffffffff16146103aa576040517f08c379a00000000000000000000000000000000000000000000000000000000081526004016103a190611b25565b60405180910390fd5b600460405180606001604052808581526020018481526020018373ffffffffffffffffffffffffffffffffffffffff1681525090806001815401808255809150506001900390600052602060002090600302016000909190919091506000820151816000019080519060200190610422929190611267565b50602082015181600101908051906020019061043f929190611267565b5060408201518160020160006101000a81548173ffffffffffffffffffffffffffffffffffffffff021916908373ffffffffffffffffffffffffffffffffffffffff1602179055505050505050565b6000600160009054906101000a900473ffffffffffffffffffffffffffffffffffffffff16905090565b600160009054906101000a900473ffffffffffffffffffffffffffffffffffffffff1673ffffffffffffffffffffffffffffffffffffffff163373ffffffffffffffffffffffffffffffffffffffff1614610548576040517f08c379a000000000000000000000000000000000000000000000000000000000815260040161053f90611b25565b60405180910390fd5b60008054906101000a900473ffffffffffffffffffffffffffffffffffffffff1673ffffffffffffffffffffffffffffffffffffffff1663095ea7b330836040518363ffffffff1660e01b81526004016105a3929190611b45565b6020604051808303816000875af11580156105c2573d6000803e3d6000fd5b505050506040513d601f19601f820116820180604052508101906105e69190611ba6565b610625576040517f08c379a000000000000000000000000000000000000000000000000000000000815260040161061c90611c1f565b60405180910390fd5b60008054906101000a900473ffffffffffffffffffffffffffffffffffffffff1673ffffffffffffffffffffffffffffffffffffffff166323b872dd3330846040518463ffffffff1660e01b815260040161068293929190611c3f565b6020604051808303816000875af11580156106a1573d6000803e3d6000fd5b505050506040513d601f19601f820116820180604052508101906106c59190611ba6565b610704576040517f08c379a00000000000000000000000000000000000000000000000000000000081526004016106fb90611cc2565b60405180910390fd5b60008054906101000a900473ffffffffffffffffffffffffffffffffffffffff1673ffffffffffffffffffffffffffffffffffffffff166342966c68826040518263ffffffff1660e01b815260040161075d91906115e9565b600060405180830381600087803b15801561077757600080fd5b505af115801561078b573d6000803e3d6000fd5b5050505050565b6000600480549050905090565b600281815481106107af57600080fd5b90600052602060002090600302016000915090508060000180546107d290611d11565b80601f01602080910402602001604051908101604052809291908181526020018280546107fe90611d11565b801561084b5780601f106108205761010080835404028352916020019161084b565b820191906000526020600020905b81548152906001019060200180831161082e57829003601f168201915b50505050509080600101805461086090611d11565b80601f016020809104026020016040519081016040528092919081815260200182805461088c90611d11565b80156108d95780601f106108ae576101008083540402835291602001916108d9565b820191906000526020600020905b8154815290600101906020018083116108bc57829003601f168201915b5050505050908060020160009054906101000a900473ffffffffffffffffffffffffffffffffffffffff16905083565b600160009054906101000a900473ffffffffffffffffffffffffffffffffffffffff1673ffffffffffffffffffffffffffffffffffffffff163373ffffffffffffffffffffffffffffffffffffffff1614610999576040517f08c379a000000000000000000000000000000000000000000000000000000000815260040161099090611b25565b60405180910390fd5b80600160006101000a81548173ffffffffffffffffffffffffffffffffffffffff021916908373ffffffffffffffffffffffffffffffffffffffff16021790555050565b60008054906101000a900473ffffffffffffffffffffffffffffffffffffffff1673ffffffffffffffffffffffffffffffffffffffff1663095ea7b330836040518363ffffffff1660e01b8152600401610a38929190611b45565b6020604051808303816000875af1158015610a57573d6000803e3d6000fd5b505050506040513d601f19601f82011682018060405250810190610a7b9190611ba6565b610aba576040517f08c379a0000000000000000000000000000000000000000000000000000000008152600401610ab190611c1f565b60405180910390fd5b60008054906101000a900473ffffffffffffffffffffffffffffffffffffffff1673ffffffffffffffffffffffffffffffffffffffff166323b872dd3384846040518463ffffffff1660e01b8152600401610b1793929190611c3f565b6020604051808303816000875af1158015610b36573d6000803e3d6000fd5b505050506040513d601f19601f82011682018060405250810190610b5a9190611ba6565b610b99576040517f08c379a0000000000000000000000000000000000000000000000000000000008152600401610b9090611d8f565b60405180910390fd5b5050565b60606005805480602002602001604051908101604052809291908181526020016000905b82821015610d3157838290600052602060002090600302016040518060600160405290816000820160009054906101000a900473ffffffffffffffffffffffffffffffffffffffff1673ffffffffffffffffffffffffffffffffffffffff1673ffffffffffffffffffffffffffffffffffffffff1681526020016001820160009054906101000a900473ffffffffffffffffffffffffffffffffffffffff1673ffffffffffffffffffffffffffffffffffffffff1673ffffffffffffffffffffffffffffffffffffffff168152602001600282018054610ca090611d11565b80601f0160208091040260200160405190810160405280929190818152602001828054610ccc90611d11565b8015610d195780601f10610cee57610100808354040283529160200191610d19565b820191906000526020600020905b815481529060010190602001808311610cfc57829003601f168201915b50505050508152505081526020019060010190610bc1565b50505050905090565b6000600580549050905090565b60606004805480602002602001604051908101604052809291908181526020016000905b82821015610f175783829060005260206000209060030201604051806060016040529081600082018054610d9e90611d11565b80601f0160208091040260200160405190810160405280929190818152602001828054610dca90611d11565b8015610e175780601f10610dec57610100808354040283529160200191610e17565b820191906000526020600020905b815481529060010190602001808311610dfa57829003601f168201915b50505050508152602001600182018054610e3090611d11565b80601f0160208091040260200160405190810160405280929190818152602001828054610e5c90611d11565b8015610ea95780601f10610e7e57610100808354040283529160200191610ea9565b820191906000526020600020905b815481529060010190602001808311610e8c57829003601f168201915b505050505081526020016002820160009054906101000a900473ffffffffffffffffffffffffffffffffffffffff1673ffffffffffffffffffffffffffffffffffffffff1673ffffffffffffffffffffffffffffffffffffffff168152505081526020019060010190610d6b565b50505050905090565b600560405180606001604052808573ffffffffffffffffffffffffffffffffffffffff1681526020018473ffffffffffffffffffffffffffffffffffffffff16815260200183815250908060018154018082558091505060019003906000526020600020906003020160009091909190915060008201518160000160006101000a81548173ffffffffffffffffffffffffffffffffffffffff021916908373ffffffffffffffffffffffffffffffffffffffff16021790555060208201518160010160006101000a81548173ffffffffffffffffffffffffffffffffffffffff021916908373ffffffffffffffffffffffffffffffffffffffff160217905550604082015181600201908051906020019061103c929190611267565b505050505050565b600160009054906101000a900473ffffffffffffffffffffffffffffffffffffffff1673ffffffffffffffffffffffffffffffffffffffff163373ffffffffffffffffffffffffffffffffffffffff16146110d4576040517f08c379a00000000000000000000000000000000000000000000000000000000081526004016110cb90611b25565b60405180910390fd5b60008054906101000a900473ffffffffffffffffffffffffffffffffffffffff1673ffffffffffffffffffffffffffffffffffffffff166340c10f1983836040518363ffffffff1660e01b815260040161112f929190611b45565b600060405180830381600087803b15801561114957600080fd5b505af115801561115d573d6000803e3d6000fd5b505050505050565b6003818154811061117557600080fd5b90600052602060002090600302016000915090508060000160009054906101000a900473ffffffffffffffffffffffffffffffffffffffff16908060010160009054906101000a900473ffffffffffffffffffffffffffffffffffffffff16908060020180546111e490611d11565b80601f016020809104026020016040519081016040528092919081815260200182805461121090611d11565b801561125d5780601f106112325761010080835404028352916020019161125d565b820191906000526020600020905b81548152906001019060200180831161124057829003601f168201915b5050505050905083565b82805461127390611d11565b90600052602060002090601f01602090048101928261129557600085556112dc565b82601f106112ae57805160ff19168380011785556112dc565b828001600101855582156112dc579182015b828111156112db5782518255916020019190600101906112c0565b5b5090506112e991906112ed565b5090565b5b808211156113065760008160009055506001016112ee565b5090565b6000604051905090565b600080fd5b600080fd5b600080fd5b600080fd5b6000601f19601f8301169050919050565b7f4e487b7100000000000000000000000000000000000000000000000000000000600052604160045260246000fd5b61137182611328565b810181811067ffffffffffffffff821117156113905761138f611339565b5b80604052505050565b60006113a361130a565b90506113af8282611368565b919050565b600067ffffffffffffffff8211156113cf576113ce611339565b5b6113d882611328565b9050602081019050919050565b82818337600083830152505050565b6000611407611402846113b4565b611399565b90508281526020810184848401111561142357611422611323565b5b61142e8482856113e5565b509392505050565b600082601f83011261144b5761144a61131e565b5b813561145b8482602086016113f4565b91505092915050565b600073ffffffffffffffffffffffffffffffffffffffff82169050919050565b600061148f82611464565b9050919050565b61149f81611484565b81146114aa57600080fd5b50565b6000813590506114bc81611496565b92915050565b6000806000606084860312156114db576114da611314565b5b600084013567ffffffffffffffff8111156114f9576114f8611319565b5b61150586828701611436565b935050602084013567ffffffffffffffff81111561152657611525611319565b5b61153286828701611436565b9250506040611543868287016114ad565b9150509250925092565b61155681611484565b82525050565b6000602082019050611571600083018461154d565b92915050565b6000819050919050565b61158a81611577565b811461159557600080fd5b50565b6000813590506115a781611581565b92915050565b6000602082840312156115c3576115c2611314565b5b60006115d184828501611598565b91505092915050565b6115e381611577565b82525050565b60006020820190506115fe60008301846115da565b92915050565b600081519050919050565b600082825260208201905092915050565b60005b8381101561163e578082015181840152602081019050611623565b8381111561164d576000848401525b50505050565b600061165e82611604565b611668818561160f565b9350611678818560208601611620565b61168181611328565b840191505092915050565b600060608201905081810360008301526116a68186611653565b905081810360208301526116ba8185611653565b90506116c9604083018461154d565b949350505050565b6000602082840312156116e7576116e6611314565b5b60006116f5848285016114ad565b91505092915050565b6000806040838503121561171557611714611314565b5b6000611723858286016114ad565b925050602061173485828601611598565b9150509250929050565b600081519050919050565b600082825260208201905092915050565b6000819050602082019050919050565b61177381611484565b82525050565b600082825260208201905092915050565b600061179582611604565b61179f8185611779565b93506117af818560208601611620565b6117b881611328565b840191505092915050565b60006060830160008301516117db600086018261176a565b5060208301516117ee602086018261176a565b5060408301518482036040860152611806828261178a565b9150508091505092915050565b600061181f83836117c3565b905092915050565b6000602082019050919050565b600061183f8261173e565b6118498185611749565b93508360208202850161185b8561175a565b8060005b8581101561189757848403895281516118788582611813565b945061188383611827565b925060208a0199505060018101905061185f565b50829750879550505050505092915050565b600060208201905081810360008301526118c38184611834565b905092915050565b600081519050919050565b600082825260208201905092915050565b6000819050602082019050919050565b60006060830160008301518482036000860152611914828261178a565b9150506020830151848203602086015261192e828261178a565b9150506040830151611943604086018261176a565b508091505092915050565b600061195a83836118f7565b905092915050565b6000602082019050919050565b600061197a826118cb565b61198481856118d6565b935083602082028501611996856118e7565b8060005b858110156119d257848403895281516119b3858261194e565b94506119be83611962565b925060208a0199505060018101905061199a565b50829750879550505050505092915050565b600060208201905081810360008301526119fe818461196f565b905092915050565b600080600060608486031215611a1f57611a1e611314565b5b6000611a2d868287016114ad565b9350506020611a3e868287016114ad565b925050604084013567ffffffffffffffff811115611a5f57611a5e611319565b5b611a6b86828701611436565b9150509250925092565b6000606082019050611a8a600083018661154d565b611a97602083018561154d565b8181036040830152611aa98184611653565b9050949350505050565b7f4572726f722c206d73672e73656e64657220646f6573206e6f7420686176652060008201527f63656e7472616c2062616e6b20726f6c65000000000000000000000000000000602082015250565b6000611b0f60318361160f565b9150611b1a82611ab3565b604082019050919050565b60006020820190508181036000830152611b3e81611b02565b9050919050565b6000604082019050611b5a600083018561154d565b611b6760208301846115da565b9392505050565b60008115159050919050565b611b8381611b6e565b8114611b8e57600080fd5b50565b600081519050611ba081611b7a565b92915050565b600060208284031215611bbc57611bbb611314565b5b6000611bca84828501611b91565b91505092915050565b7f4572726f722063616e277420617070726f766520616d6f756e74000000000000600082015250565b6000611c09601a8361160f565b9150611c1482611bd3565b602082019050919050565b60006020820190508181036000830152611c3881611bfc565b9050919050565b6000606082019050611c54600083018661154d565b611c61602083018561154d565b611c6e60408301846115da565b949350505050565b7f4572726f722c2063616e2774207265636569766520746f6b656e730000000000600082015250565b6000611cac601b8361160f565b9150611cb782611c76565b602082019050919050565b60006020820190508181036000830152611cdb81611c9f565b9050919050565b7f4e487b7100000000000000000000000000000000000000000000000000000000600052602260045260246000fd5b60006002820490506001821680611d2957607f821691505b60208210811415611d3d57611d3c611ce2565b5b50919050565b7f4572726f722c2063616e27742073656e6420746f6b656e730000000000000000600082015250565b6000611d7960188361160f565b9150611d8482611d43565b602082019050919050565b60006020820190508181036000830152611da881611d6c565b905091905056fea26469706673582212208b6c22c58965786d5eb24844bf7ca81404ed4137f92b3688382494a5875575ac64736f6c634300080b0033",
  "immutableReferences": {},
  "source": "// SPDX-License-Identifier: MIT\r\n\r\n//need to seprate the contracts due to how there is too big to be deployed\r\npragma solidity>=0.6.0 <0.9.0 ;\r\n\r\nimport \"./Token.sol\";\r\n\r\n\r\ncontract dapps {\r\n\r\n    Token private token;\r\n    address private CB;\r\n\r\n    Member[] public member;\r\n    Track[] public track;\r\n\r\n    struct Member {\r\n        string Name;\r\n        string Gender;\r\n        address Address;\r\n    }\r\n\r\n    struct Track {\r\n        address Source;\r\n        address To;\r\n        string Amount;\r\n    }\r\n\r\n    Member[] members;\r\n    Track[] tracks;\r\n\r\n    constructor(Token _token){\r\n        token = _token;\r\n        CB = msg.sender;\r\n    }\r\n\r\n    function issuance(address to, uint256 amount) public{\r\n        require(msg.sender==CB, 'Error, msg.sender does not have central bank role');\r\n        token.mint(to, amount);\r\n    }\r\n\r\n    function redemption (uint256 amount) public {\r\n        require(msg.sender==CB, 'Error, msg.sender does not have central bank role');\r\n        require(token.approve(address(this), amount),\"Error can't approve amount\");\r\n        require(token.transferFrom(msg.sender, address(this), amount), \"Error, can't receive tokens\");\r\n        token.burn(amount);\r\n    }\r\n\r\n    function transfer(address to, uint256 amount) public{\r\n        require(token.approve(address(this), amount),\"Error can't approve amount\");\r\n        require(token.transferFrom(msg.sender, to, amount), \"Error, can't send tokens\");\r\n    }\r\n\r\n    function AddMember(string memory _name, string memory _gender, address _address) public{\r\n        require(msg.sender==CB, 'Error, msg.sender does not have central bank role');\r\n        members.push(Member(_name, _gender, _address));\r\n    }   \r\n\r\n    function MemberLength() public view returns(uint256){\r\n        return members.length;\r\n    }\r\n\r\n   /* function ShowMembers(string[] memory Name, string[] memory Gender, address[] memory Address) view public {  \r\n        for(uint i=0; i < 3; i++){\r\n                Name[i] = member[i].Name;\r\n                Gender[i] = member[i].Gender;\r\n                Address[i] = member[i].Address;      \r\n        }     \r\n    }*/  \r\n\r\n    function ShowMembers() public view returns(Member[] memory){ \r\n        return members;         \r\n    }  \r\n\r\n    function AddTrack(address _source, address _to, string memory _amount2) public{\r\n        tracks.push(Track(_source, _to, _amount2));\r\n    }  \r\n\r\n    function TrackLength() public view returns(uint256){\r\n        return tracks.length;\r\n    }\r\n\r\n    /*function Tracking(address[] memory Source, address[] memory To, string[] memory Amount) view public{\r\n\r\n        for(uint i=0; i < tracks.length; i++){\r\n            Source[i] = track[i].Source;\r\n            To[i] = track[i].To;\r\n            Amount[i] = track[i].Amount;\r\n        }            \r\n    }*/\r\n\r\n    function Tracking() public view returns(Track[] memory){ \r\n        return tracks;         \r\n    }  \r\n\r\n    function passCentralBankRole(address newCB) public{\r\n        require(msg.sender==CB, 'Error, msg.sender does not have central bank role');\r\n        CB = newCB;\r\n    }\r\n\r\n    function ShowCentralBankRole() public view returns(address){ \r\n        return CB;         \r\n    }  \r\n\r\n    fallback() external payable {}\r\n\r\n    receive() external payable {}\r\n\r\n\r\n}",
  "sourcePath": "C:\\Users\\kvnth\\Desktop\\CBDC\\cbdc-app\\src\\contracts\\dapps.sol",
  "compiler": {
    "name": "solc",
    "version": "0.8.11+commit.d7f03943.Emscripten.clang"
  },
  "schemaVersion": "3.4.3",
  "updatedAt": "2022-01-20T17:55:45.265Z",
  "networkType": "ethereum",
  "devdoc": {
    "kind": "dev",
    "methods": {},
    "version": 1
  },
  "userdoc": {
    "kind": "user",
    "methods": {},
    "version": 1
  }
}