{
  "contractName": "dapps",
  "abi": [
    {
      "inputs": [
        {
          "internalType": "contract Token",
          "name": "_token",
          "type": "address"
        }
      ],
      "stateMutability": "nonpayable",
      "type": "constructor"
    },
    {
      "stateMutability": "payable",
      "type": "fallback",
      "payable": true
    },
    {
      "inputs": [
        {
          "internalType": "uint256",
          "name": "",
          "type": "uint256"
        }
      ],
      "name": "member",
      "outputs": [
        {
          "internalType": "string",
          "name": "Name",
          "type": "string"
        },
        {
          "internalType": "string",
          "name": "Gender",
          "type": "string"
        },
        {
          "internalType": "address",
          "name": "Address",
          "type": "address"
        }
      ],
      "stateMutability": "view",
      "type": "function",
      "constant": true
    },
    {
      "stateMutability": "payable",
      "type": "receive",
      "payable": true
    },
    {
      "inputs": [
        {
          "internalType": "address",
          "name": "to",
          "type": "address"
        },
        {
          "internalType": "uint256",
          "name": "amount",
          "type": "uint256"
        }
      ],
      "name": "issuance",
      "outputs": [],
      "stateMutability": "nonpayable",
      "type": "function"
    },
    {
      "inputs": [
        {
          "internalType": "uint256",
          "name": "amount",
          "type": "uint256"
        }
      ],
      "name": "redemption",
      "outputs": [],
      "stateMutability": "nonpayable",
      "type": "function"
    },
    {
      "inputs": [
        {
          "internalType": "address",
          "name": "to",
          "type": "address"
        },
        {
          "internalType": "uint256",
          "name": "amount",
          "type": "uint256"
        }
      ],
      "name": "transfer",
      "outputs": [],
      "stateMutability": "nonpayable",
      "type": "function"
    },
    {
      "inputs": [
        {
          "internalType": "string",
          "name": "_name",
          "type": "string"
        },
        {
          "internalType": "string",
          "name": "_gender",
          "type": "string"
        },
        {
          "internalType": "address",
          "name": "_address",
          "type": "address"
        }
      ],
      "name": "AddMember",
      "outputs": [],
      "stateMutability": "nonpayable",
      "type": "function"
    },
    {
      "inputs": [],
      "name": "MemberLength",
      "outputs": [
        {
          "internalType": "uint256",
          "name": "",
          "type": "uint256"
        }
      ],
      "stateMutability": "view",
      "type": "function",
      "constant": true
    },
    {
      "inputs": [],
      "name": "ShowMembers",
      "outputs": [
        {
          "components": [
            {
              "internalType": "string",
              "name": "Name",
              "type": "string"
            },
            {
              "internalType": "string",
              "name": "Gender",
              "type": "string"
            },
            {
              "internalType": "address",
              "name": "Address",
              "type": "address"
            }
          ],
          "internalType": "struct dapps.Member[]",
          "name": "",
          "type": "tuple[]"
        }
      ],
      "stateMutability": "view",
      "type": "function",
      "constant": true
    }
  ],
  "bytecode": "0x60806040523480156200001157600080fd5b5060405162001486380380620014868339818101604052810190620000379190620000fc565b806000806101000a81548173ffffffffffffffffffffffffffffffffffffffff021916908373ffffffffffffffffffffffffffffffffffffffff160217905550506200012e565b600080fd5b600073ffffffffffffffffffffffffffffffffffffffff82169050919050565b6000620000b08262000083565b9050919050565b6000620000c482620000a3565b9050919050565b620000d681620000b7565b8114620000e257600080fd5b50565b600081519050620000f681620000cb565b92915050565b6000602082840312156200011557620001146200007e565b5b60006200012584828501620000e5565b91505092915050565b611348806200013e6000396000f3fe6080604052600436106100745760003560e01c8063956d113b1161004e578063956d113b146100fa578063a9059cbb14610139578063cd1edcb414610162578063f6f5218e1461018d5761007b565b806321ff1b281461007d5780634a1dc092146100a65780635b525fa3146100cf5761007b565b3661007b57005b005b34801561008957600080fd5b506100a4600480360381019061009f9190610ce0565b6101b6565b005b3480156100b257600080fd5b506100cd60048036038101906100c89190610da1565b61029a565b005b3480156100db57600080fd5b506100e46104e4565b6040516100f19190610ddd565b60405180910390f35b34801561010657600080fd5b50610121600480360381019061011c9190610da1565b6104f1565b60405161013093929190610e8f565b60405180910390f35b34801561014557600080fd5b50610160600480360381019061015b9190610ed4565b61065b565b005b34801561016e57600080fd5b5061017761081b565b6040516101849190611086565b60405180910390f35b34801561019957600080fd5b506101b460048036038101906101af9190610ed4565b6109f4565b005b600260405180606001604052808581526020018481526020018373ffffffffffffffffffffffffffffffffffffffff168152509080600181540180825580915050600190039060005260206000209060030201600090919091909150600082015181600001908051906020019061022e929190610a85565b50602082015181600101908051906020019061024b929190610a85565b5060408201518160020160006101000a81548173ffffffffffffffffffffffffffffffffffffffff021916908373ffffffffffffffffffffffffffffffffffffffff1602179055505050505050565b60008054906101000a900473ffffffffffffffffffffffffffffffffffffffff1673ffffffffffffffffffffffffffffffffffffffff1663095ea7b330836040518363ffffffff1660e01b81526004016102f59291906110a8565b6020604051808303816000875af1158015610314573d6000803e3d6000fd5b505050506040513d601f19601f820116820180604052508101906103389190611109565b610377576040517f08c379a000000000000000000000000000000000000000000000000000000000815260040161036e90611182565b60405180910390fd5b60008054906101000a900473ffffffffffffffffffffffffffffffffffffffff1673ffffffffffffffffffffffffffffffffffffffff166323b872dd3330846040518463ffffffff1660e01b81526004016103d4939291906111a2565b6020604051808303816000875af11580156103f3573d6000803e3d6000fd5b505050506040513d601f19601f820116820180604052508101906104179190611109565b610456576040517f08c379a000000000000000000000000000000000000000000000000000000000815260040161044d90611225565b60405180910390fd5b60008054906101000a900473ffffffffffffffffffffffffffffffffffffffff1673ffffffffffffffffffffffffffffffffffffffff166342966c68826040518263ffffffff1660e01b81526004016104af9190610ddd565b600060405180830381600087803b1580156104c957600080fd5b505af11580156104dd573d6000803e3d6000fd5b5050505050565b6000600280549050905090565b6001818154811061050157600080fd5b906000526020600020906003020160009150905080600001805461052490611274565b80601f016020809104026020016040519081016040528092919081815260200182805461055090611274565b801561059d5780601f106105725761010080835404028352916020019161059d565b820191906000526020600020905b81548152906001019060200180831161058057829003601f168201915b5050505050908060010180546105b290611274565b80601f01602080910402602001604051908101604052809291908181526020018280546105de90611274565b801561062b5780601f106106005761010080835404028352916020019161062b565b820191906000526020600020905b81548152906001019060200180831161060e57829003601f168201915b5050505050908060020160009054906101000a900473ffffffffffffffffffffffffffffffffffffffff16905083565b60008054906101000a900473ffffffffffffffffffffffffffffffffffffffff1673ffffffffffffffffffffffffffffffffffffffff1663095ea7b330836040518363ffffffff1660e01b81526004016106b69291906110a8565b6020604051808303816000875af11580156106d5573d6000803e3d6000fd5b505050506040513d601f19601f820116820180604052508101906106f99190611109565b610738576040517f08c379a000000000000000000000000000000000000000000000000000000000815260040161072f90611182565b60405180910390fd5b60008054906101000a900473ffffffffffffffffffffffffffffffffffffffff1673ffffffffffffffffffffffffffffffffffffffff166323b872dd3384846040518463ffffffff1660e01b8152600401610795939291906111a2565b6020604051808303816000875af11580156107b4573d6000803e3d6000fd5b505050506040513d601f19601f820116820180604052508101906107d89190611109565b610817576040517f08c379a000000000000000000000000000000000000000000000000000000000815260040161080e906112f2565b60405180910390fd5b5050565b60606002805480602002602001604051908101604052809291908181526020016000905b828210156109eb578382906000526020600020906003020160405180606001604052908160008201805461087290611274565b80601f016020809104026020016040519081016040528092919081815260200182805461089e90611274565b80156108eb5780601f106108c0576101008083540402835291602001916108eb565b820191906000526020600020905b8154815290600101906020018083116108ce57829003601f168201915b5050505050815260200160018201805461090490611274565b80601f016020809104026020016040519081016040528092919081815260200182805461093090611274565b801561097d5780601f106109525761010080835404028352916020019161097d565b820191906000526020600020905b81548152906001019060200180831161096057829003601f168201915b505050505081526020016002820160009054906101000a900473ffffffffffffffffffffffffffffffffffffffff1673ffffffffffffffffffffffffffffffffffffffff1673ffffffffffffffffffffffffffffffffffffffff16815250508152602001906001019061083f565b50505050905090565b60008054906101000a900473ffffffffffffffffffffffffffffffffffffffff1673ffffffffffffffffffffffffffffffffffffffff166340c10f1983836040518363ffffffff1660e01b8152600401610a4f9291906110a8565b600060405180830381600087803b158015610a6957600080fd5b505af1158015610a7d573d6000803e3d6000fd5b505050505050565b828054610a9190611274565b90600052602060002090601f016020900481019282610ab35760008555610afa565b82601f10610acc57805160ff1916838001178555610afa565b82800160010185558215610afa579182015b82811115610af9578251825591602001919060010190610ade565b5b509050610b079190610b0b565b5090565b5b80821115610b24576000816000905550600101610b0c565b5090565b6000604051905090565b600080fd5b600080fd5b600080fd5b600080fd5b6000601f19601f8301169050919050565b7f4e487b7100000000000000000000000000000000000000000000000000000000600052604160045260246000fd5b610b8f82610b46565b810181811067ffffffffffffffff82111715610bae57610bad610b57565b5b80604052505050565b6000610bc1610b28565b9050610bcd8282610b86565b919050565b600067ffffffffffffffff821115610bed57610bec610b57565b5b610bf682610b46565b9050602081019050919050565b82818337600083830152505050565b6000610c25610c2084610bd2565b610bb7565b905082815260208101848484011115610c4157610c40610b41565b5b610c4c848285610c03565b509392505050565b600082601f830112610c6957610c68610b3c565b5b8135610c79848260208601610c12565b91505092915050565b600073ffffffffffffffffffffffffffffffffffffffff82169050919050565b6000610cad82610c82565b9050919050565b610cbd81610ca2565b8114610cc857600080fd5b50565b600081359050610cda81610cb4565b92915050565b600080600060608486031215610cf957610cf8610b32565b5b600084013567ffffffffffffffff811115610d1757610d16610b37565b5b610d2386828701610c54565b935050602084013567ffffffffffffffff811115610d4457610d43610b37565b5b610d5086828701610c54565b9250506040610d6186828701610ccb565b9150509250925092565b6000819050919050565b610d7e81610d6b565b8114610d8957600080fd5b50565b600081359050610d9b81610d75565b92915050565b600060208284031215610db757610db6610b32565b5b6000610dc584828501610d8c565b91505092915050565b610dd781610d6b565b82525050565b6000602082019050610df26000830184610dce565b92915050565b600081519050919050565b600082825260208201905092915050565b60005b83811015610e32578082015181840152602081019050610e17565b83811115610e41576000848401525b50505050565b6000610e5282610df8565b610e5c8185610e03565b9350610e6c818560208601610e14565b610e7581610b46565b840191505092915050565b610e8981610ca2565b82525050565b60006060820190508181036000830152610ea98186610e47565b90508181036020830152610ebd8185610e47565b9050610ecc6040830184610e80565b949350505050565b60008060408385031215610eeb57610eea610b32565b5b6000610ef985828601610ccb565b9250506020610f0a85828601610d8c565b9150509250929050565b600081519050919050565b600082825260208201905092915050565b6000819050602082019050919050565b600082825260208201905092915050565b6000610f5c82610df8565b610f668185610f40565b9350610f76818560208601610e14565b610f7f81610b46565b840191505092915050565b610f9381610ca2565b82525050565b60006060830160008301518482036000860152610fb68282610f51565b91505060208301518482036020860152610fd08282610f51565b9150506040830151610fe56040860182610f8a565b508091505092915050565b6000610ffc8383610f99565b905092915050565b6000602082019050919050565b600061101c82610f14565b6110268185610f1f565b93508360208202850161103885610f30565b8060005b8581101561107457848403895281516110558582610ff0565b945061106083611004565b925060208a0199505060018101905061103c565b50829750879550505050505092915050565b600060208201905081810360008301526110a08184611011565b905092915050565b60006040820190506110bd6000830185610e80565b6110ca6020830184610dce565b9392505050565b60008115159050919050565b6110e6816110d1565b81146110f157600080fd5b50565b600081519050611103816110dd565b92915050565b60006020828403121561111f5761111e610b32565b5b600061112d848285016110f4565b91505092915050565b7f4572726f722063616e277420617070726f766520616d6f756e74000000000000600082015250565b600061116c601a83610e03565b915061117782611136565b602082019050919050565b6000602082019050818103600083015261119b8161115f565b9050919050565b60006060820190506111b76000830186610e80565b6111c46020830185610e80565b6111d16040830184610dce565b949350505050565b7f4572726f722c2063616e2774207265636569766520746f6b656e730000000000600082015250565b600061120f601b83610e03565b915061121a826111d9565b602082019050919050565b6000602082019050818103600083015261123e81611202565b9050919050565b7f4e487b7100000000000000000000000000000000000000000000000000000000600052602260045260246000fd5b6000600282049050600182168061128c57607f821691505b602082108114156112a05761129f611245565b5b50919050565b7f4572726f722c2063616e27742073656e6420746f6b656e730000000000000000600082015250565b60006112dc601883610e03565b91506112e7826112a6565b602082019050919050565b6000602082019050818103600083015261130b816112cf565b905091905056fea264697066735822122093022e1c3ca993f0382df9728e1eb7b65d3b7f4b161b812f541ab67ce6d23f4e64736f6c634300080c0033",
  "immutableReferences": {},
  "source": "// SPDX-License-Identifier: MIT\r\n\r\n//need to seprate the contracts due to how there is too big to be deployed\r\npragma solidity>=0.6.0 <0.9.0 ;\r\n\r\nimport \"./Token.sol\";\r\n\r\n\r\ncontract dapps {\r\n\r\n    Token private token;\r\n\r\n    Member[] public member;\r\n\r\n    struct Member {\r\n        string Name;\r\n        string Gender;\r\n        address Address;\r\n    }\r\n\r\n    Member[] members;\r\n\r\n    constructor(Token _token){\r\n        token = _token;\r\n    }\r\n\r\n    function issuance(address to, uint256 amount) public{\r\n        token.mint(to, amount);\r\n    }\r\n\r\n    function redemption (uint256 amount) public {\r\n        require(token.approve(address(this), amount),\"Error can't approve amount\");\r\n        require(token.transferFrom(msg.sender, address(this), amount), \"Error, can't receive tokens\");\r\n        token.burn(amount);\r\n    }\r\n\r\n    function transfer(address to, uint256 amount) public{\r\n        require(token.approve(address(this), amount),\"Error can't approve amount\");\r\n        require(token.transferFrom(msg.sender, to, amount), \"Error, can't send tokens\");\r\n    }\r\n\r\n    function AddMember(string memory _name, string memory _gender, address _address) public{\r\n        members.push(Member(_name, _gender, _address));\r\n    }   \r\n\r\n    function MemberLength() public view returns(uint256){\r\n        return members.length;\r\n    }\r\n\r\n    function ShowMembers() public view returns(Member[] memory){ \r\n        return members;         \r\n    }  \r\n\r\n    fallback() external payable {}\r\n\r\n    receive() external payable {}\r\n\r\n\r\n}",
  "sourcePath": "C:\\Users\\kvnth\\Desktop\\DOT\\cbdc-app\\src\\contracts\\dapps.sol",
  "compiler": {
    "name": "solc",
    "version": "0.8.12+commit.f00d7308.Emscripten.clang"
  },
  "schemaVersion": "3.4.3",
  "updatedAt": "2022-03-07T12:28:13.323Z",
  "networkType": "ethereum",
  "devdoc": {
    "kind": "dev",
    "methods": {},
    "version": 1
  },
  "userdoc": {
    "kind": "user",
    "methods": {},
    "version": 1
  }
}