{
  "contractName": "Member",
  "abi": [
    {
      "inputs": [
        {
          "internalType": "string",
          "name": "_name",
          "type": "string"
        }
      ],
      "stateMutability": "nonpayable",
      "type": "constructor"
    },
    {
      "anonymous": false,
      "inputs": [
        {
          "indexed": true,
          "internalType": "address",
          "name": "from",
          "type": "address"
        },
        {
          "indexed": false,
          "internalType": "address",
          "name": "to",
          "type": "address"
        }
      ],
      "name": "MinterChanged",
      "type": "event"
    },
    {
      "inputs": [],
      "name": "Name",
      "outputs": [
        {
          "internalType": "string",
          "name": "",
          "type": "string"
        }
      ],
      "stateMutability": "view",
      "type": "function"
    },
    {
      "inputs": [],
      "name": "minter",
      "outputs": [
        {
          "internalType": "address",
          "name": "",
          "type": "address"
        }
      ],
      "stateMutability": "view",
      "type": "function"
    },
    {
      "inputs": [
        {
          "internalType": "address",
          "name": "dapps",
          "type": "address"
        }
      ],
      "name": "passMinterRole",
      "outputs": [
        {
          "internalType": "bool",
          "name": "",
          "type": "bool"
        }
      ],
      "stateMutability": "nonpayable",
      "type": "function"
    }
  ],
  "bytecode": "0x60806040523480156200001157600080fd5b506040516200090a3803806200090a8339818101604052810190620000379190620002e4565b80600190805190602001906200004f92919062000097565b50336000806101000a81548173ffffffffffffffffffffffffffffffffffffffff021916908373ffffffffffffffffffffffffffffffffffffffff160217905550506200039a565b828054620000a59062000364565b90600052602060002090601f016020900481019282620000c9576000855562000115565b82601f10620000e457805160ff191683800117855562000115565b8280016001018555821562000115579182015b8281111562000114578251825591602001919060010190620000f7565b5b50905062000124919062000128565b5090565b5b808211156200014357600081600090555060010162000129565b5090565b6000604051905090565b600080fd5b600080fd5b600080fd5b600080fd5b6000601f19601f8301169050919050565b7f4e487b7100000000000000000000000000000000000000000000000000000000600052604160045260246000fd5b620001b08262000165565b810181811067ffffffffffffffff82111715620001d257620001d162000176565b5b80604052505050565b6000620001e762000147565b9050620001f58282620001a5565b919050565b600067ffffffffffffffff82111562000218576200021762000176565b5b620002238262000165565b9050602081019050919050565b60005b838110156200025057808201518184015260208101905062000233565b8381111562000260576000848401525b50505050565b60006200027d6200027784620001fa565b620001db565b9050828152602081018484840111156200029c576200029b62000160565b5b620002a984828562000230565b509392505050565b600082601f830112620002c957620002c86200015b565b5b8151620002db84826020860162000266565b91505092915050565b600060208284031215620002fd57620002fc62000151565b5b600082015167ffffffffffffffff8111156200031e576200031d62000156565b5b6200032c84828501620002b1565b91505092915050565b7f4e487b7100000000000000000000000000000000000000000000000000000000600052602260045260246000fd5b600060028204905060018216806200037d57607f821691505b6020821081141562000394576200039362000335565b5b50919050565b61056080620003aa6000396000f3fe608060405234801561001057600080fd5b50600436106100415760003560e01c806307546172146100465780638052474d14610064578063d7fc5b1514610082575b600080fd5b61004e6100b2565b60405161005b91906102cd565b60405180910390f35b61006c6100d6565b6040516100799190610381565b60405180910390f35b61009c600480360381019061009791906103d4565b610164565b6040516100a9919061041c565b60405180910390f35b60008054906101000a900473ffffffffffffffffffffffffffffffffffffffff1681565b600180546100e390610466565b80601f016020809104026020016040519081016040528092919081815260200182805461010f90610466565b801561015c5780601f106101315761010080835404028352916020019161015c565b820191906000526020600020905b81548152906001019060200180831161013f57829003601f168201915b505050505081565b60008060009054906101000a900473ffffffffffffffffffffffffffffffffffffffff1673ffffffffffffffffffffffffffffffffffffffff163373ffffffffffffffffffffffffffffffffffffffff16146101f5576040517f08c379a00000000000000000000000000000000000000000000000000000000081526004016101ec9061050a565b60405180910390fd5b816000806101000a81548173ffffffffffffffffffffffffffffffffffffffff021916908373ffffffffffffffffffffffffffffffffffffffff1602179055503373ffffffffffffffffffffffffffffffffffffffff167f3b0007eb941cf645526cbb3a4fdaecda9d28ce4843167d9263b536a1f1edc0f68360405161027b91906102cd565b60405180910390a260019050919050565b600073ffffffffffffffffffffffffffffffffffffffff82169050919050565b60006102b78261028c565b9050919050565b6102c7816102ac565b82525050565b60006020820190506102e260008301846102be565b92915050565b600081519050919050565b600082825260208201905092915050565b60005b83811015610322578082015181840152602081019050610307565b83811115610331576000848401525b50505050565b6000601f19601f8301169050919050565b6000610353826102e8565b61035d81856102f3565b935061036d818560208601610304565b61037681610337565b840191505092915050565b6000602082019050818103600083015261039b8184610348565b905092915050565b600080fd5b6103b1816102ac565b81146103bc57600080fd5b50565b6000813590506103ce816103a8565b92915050565b6000602082840312156103ea576103e96103a3565b5b60006103f8848285016103bf565b91505092915050565b60008115159050919050565b61041681610401565b82525050565b6000602082019050610431600083018461040d565b92915050565b7f4e487b7100000000000000000000000000000000000000000000000000000000600052602260045260246000fd5b6000600282049050600182168061047e57607f821691505b6020821081141561049257610491610437565b5b50919050565b7f4572726f722c206f6e6c79206f776e65722063616e206368616e67652070617360008201527f73206d696e74657220726f6c6500000000000000000000000000000000000000602082015250565b60006104f4602d836102f3565b91506104ff82610498565b604082019050919050565b60006020820190508181036000830152610523816104e7565b905091905056fea26469706673582212200a3643e2028c2df1bf856a535d3ab052836f2253496a8fad40324b61461156e564736f6c634300080b0033",
  "immutableReferences": {},
  "source": "// SPDX-License-Identifier: MIT\r\npragma solidity >=0.6.0 <0.9.0;\r\n\r\ncontract Member{\r\n    address public minter;\r\n\r\n    event MinterChanged(address indexed from, address to);\r\n\r\n    string public Name;\r\n\r\n\r\n    constructor(string memory _name){\r\n      Name = _name;\r\n      minter = msg.sender; //only initially\r\n    }\r\n\r\n    function passMinterRole(address dapps) public  returns (bool) {\r\n      require(msg.sender==minter, 'Error, only owner can change pass minter role');\r\n      minter = dapps;\r\n      emit MinterChanged(msg.sender, dapps);\r\n      return true;\r\n    }\r\n}",
  "sourcePath": "C:\\Users\\kvnth\\Desktop\\CBDC\\cbdc-app\\src\\contracts\\Member.sol",
  "compiler": {
    "name": "solc",
    "version": "0.8.11+commit.d7f03943.Emscripten.clang"
  },
  "schemaVersion": "3.4.3",
  "updatedAt": "2022-01-20T17:55:40.111Z",
  "devdoc": {
    "kind": "dev",
    "methods": {},
    "version": 1
  },
  "userdoc": {
    "kind": "user",
    "methods": {},
    "version": 1
  }
}